:100000000C942A000C9434000C9434000C943400AA
:100010000C9434000C9434000C9434000C94340090
:100020000C9434000C9434000C9434000C94340080
:100030000C9434000C9434000C9434000C94340070
:100040000C9434000C9434000C9434000C94340060
:100050000C94340011241FBECFE5D8E0DEBFCDBF25
:100060000E9436000C946A000C9400008FEF87BB4E
:1000700041E050E0E1E0F0E060E070E0B1E0A0E0FD
:100080001FEF0FEF02C0412F502F29B3E8BB640FC1
:10009000751F4130510529F4EE0FFF1F211104C0D7
:1000A00010C0F595E795FACF80E090E030E0CFE51D
:1000B000DAEE2197F1F700C000000196821793074E
:1000C000B1F767307105F9F261157105F1F64B2F43
:0800D0005A2FDBCFF894FFCF9B
:00000001FF
